{
  "_format": "hh-sol-artifact-1",
  "contractName": "Web3Button",
  "sourceName": "contracts/Web3Button.sol",
  "abi": [
    {
      "inputs": [],
      "stateMutability": "nonpayable",
      "type": "constructor"
    },
    {
      "anonymous": false,
      "inputs": [
        {
          "components": [
            {
              "internalType": "address",
              "name": "lastPresser",
              "type": "address"
            },
            {
              "internalType": "uint256",
              "name": "lastPressTimestamp",
              "type": "uint256"
            },
            {
              "internalType": "uint256",
              "name": "potBalance",
              "type": "uint256"
            }
          ],
          "indexed": false,
          "internalType": "struct Web3Button.GameStatus",
          "name": "gameStatus",
          "type": "tuple"
        }
      ],
      "name": "ButtonPressed",
      "type": "event"
    },
    {
      "anonymous": false,
      "inputs": [
        {
          "indexed": true,
          "internalType": "address",
          "name": "winner",
          "type": "address"
        }
      ],
      "name": "GameWon",
      "type": "event"
    },
    {
      "inputs": [],
      "name": "CLAIM_DURATION",
      "outputs": [
        {
          "internalType": "uint256",
          "name": "",
          "type": "uint256"
        }
      ],
      "stateMutability": "view",
      "type": "function"
    },
    {
      "inputs": [],
      "name": "claimPot",
      "outputs": [],
      "stateMutability": "nonpayable",
      "type": "function"
    },
    {
      "inputs": [],
      "name": "gameStatus",
      "outputs": [
        {
          "internalType": "address",
          "name": "lastPresser",
          "type": "address"
        },
        {
          "internalType": "uint256",
          "name": "lastPressTimestamp",
          "type": "uint256"
        },
        {
          "internalType": "uint256",
          "name": "potBalance",
          "type": "uint256"
        }
      ],
      "stateMutability": "view",
      "type": "function"
    },
    {
      "inputs": [],
      "name": "isGameActive",
      "outputs": [
        {
          "internalType": "bool",
          "name": "",
          "type": "bool"
        }
      ],
      "stateMutability": "view",
      "type": "function"
    },
    {
      "inputs": [],
      "name": "owner",
      "outputs": [
        {
          "internalType": "address",
          "name": "",
          "type": "address"
        }
      ],
      "stateMutability": "view",
      "type": "function"
    },
    {
      "inputs": [],
      "name": "press",
      "outputs": [],
      "stateMutability": "payable",
      "type": "function"
    },
    {
      "inputs": [],
      "name": "withdraw",
      "outputs": [],
      "stateMutability": "nonpayable",
      "type": "function"
    },
    {
      "stateMutability": "payable",
      "type": "receive"
    }
  ],
  "bytecode": "0x60806040526001600060146101000a81548160ff02191690831515021790555034801561002b57600080fd5b50336000806101000a81548173ffffffffffffffffffffffffffffffffffffffff021916908373ffffffffffffffffffffffffffffffffffffffff1602179055506111958061007b6000396000f3fe6080604052600436106100745760003560e01c8063722fed7e1161004e578063722fed7e146101055780638da5cb5b14610132578063f688abd11461015d578063ff844a6314610174576100b4565b80630c0ef2b0146100b95780633ccfd60b146100e45780635b372532146100fb576100b4565b366100b4576040517f08c379a00000000000000000000000000000000000000000000000000000000081526004016100ab90610956565b60405180910390fd5b600080fd5b3480156100c557600080fd5b506100ce61019f565b6040516100db9190610991565b60405180910390f35b3480156100f057600080fd5b506100f96101b2565b005b6101036102bf565b005b34801561011157600080fd5b5061011a61057e565b60405161012993929190610a06565b60405180910390f35b34801561013e57600080fd5b506101476105b6565b6040516101549190610a3d565b60405180910390f35b34801561016957600080fd5b506101726105da565b005b34801561018057600080fd5b506101896108cd565b6040516101969190610a58565b60405180910390f35b600060149054906101000a900460ff1681565b60008054906101000a900473ffffffffffffffffffffffffffffffffffffffff1673ffffffffffffffffffffffffffffffffffffffff163373ffffffffffffffffffffffffffffffffffffffff1614610240576040517f08c379a000000000000000000000000000000000000000000000000000000000815260040161023790610ae5565b60405180910390fd5b6000600160020154476102539190610b34565b905060008054906101000a900473ffffffffffffffffffffffffffffffffffffffff1673ffffffffffffffffffffffffffffffffffffffff166108fc829081150290604051600060405180830381858888f193505050501580156102bb573d6000803e3d6000fd5b5050565b66038d7ea4c68000341015610309576040517f08c379a000000000000000000000000000000000000000000000000000000000815260040161030090610bda565b60405180910390fd5b600060149054906101000a900460ff16158015610336575061012c60018001546103339190610bfa565b42115b15610357576001600060146101000a81548160ff0219169083151502179055505b600060149054906101000a900460ff1680156103c35750600160000160009054906101000a900473ffffffffffffffffffffffffffffffffffffffff1673ffffffffffffffffffffffffffffffffffffffff163373ffffffffffffffffffffffffffffffffffffffff16145b15610403576040517f08c379a00000000000000000000000000000000000000000000000000000000081526004016103fa90610c7a565b60405180910390fd5b603c6001800154426104159190610b34565b10158015610434575061012c60018001546104309190610bfa565b4211155b15610474576040517f08c379a000000000000000000000000000000000000000000000000000000000815260040161046b90610d0c565b60405180910390fd5b600060149054906101000a900460ff166104c3576040517f08c379a00000000000000000000000000000000000000000000000000000000081526004016104ba90610d0c565b60405180910390fd5b600a6009346104d29190610d2c565b6104dc9190610d9d565b600160020160008282546104f09190610bfa565b9250508190555033600160000160006101000a81548173ffffffffffffffffffffffffffffffffffffffff021916908373ffffffffffffffffffffffffffffffffffffffff1602179055504260018001819055507f81ce2876de15a1b8be92b2e93c5bbbe631eef37bc75dcfeeef46bf98f9b179d660016040516105749190610ebc565b60405180910390a1565b60018060000160009054906101000a900473ffffffffffffffffffffffffffffffffffffffff16908060010154908060020154905083565b60008054906101000a900473ffffffffffffffffffffffffffffffffffffffff1681565b600160000160009054906101000a900473ffffffffffffffffffffffffffffffffffffffff1673ffffffffffffffffffffffffffffffffffffffff163373ffffffffffffffffffffffffffffffffffffffff161461066d576040517f08c379a000000000000000000000000000000000000000000000000000000000815260040161066490610f49565b60405180910390fd5b603c60018001544261067f9190610b34565b10156106c0576040517f08c379a00000000000000000000000000000000000000000000000000000000081526004016106b790610fb5565b60405180910390fd5b61012c60018001546106d29190610bfa565b421115610714576040517f08c379a000000000000000000000000000000000000000000000000000000000815260040161070b90611021565b60405180910390fd5b60006001600201541161075c576040517f08c379a00000000000000000000000000000000000000000000000000000000081526004016107539061108d565b60405180910390fd5b60006001600201549050600060016002018190555060008060146101000a81548160ff0219169083151502179055506000600160000160006101000a81548173ffffffffffffffffffffffffffffffffffffffff021916908373ffffffffffffffffffffffffffffffffffffffff1602179055506000600180018190555060003373ffffffffffffffffffffffffffffffffffffffff1682604051610800906110de565b60006040518083038185875af1925050503d806000811461083d576040519150601f19603f3d011682016040523d82523d6000602084013e610842565b606091505b5050905080610886576040517f08c379a000000000000000000000000000000000000000000000000000000000815260040161087d9061113f565b60405180910390fd5b3373ffffffffffffffffffffffffffffffffffffffff167f78b3193cf31372e77b1f3045481681f86e18e346de12ae7f1ecc322ff0adf1a460405160405180910390a25050565b61012c81565b600082825260208201905092915050565b7f436f6e747261637420646f6573206e6f7420616363657074206469726563742060008201527f4574686572207472616e73666572730000000000000000000000000000000000602082015250565b6000610940602f836108d3565b915061094b826108e4565b604082019050919050565b6000602082019050818103600083015261096f81610933565b9050919050565b60008115159050919050565b61098b81610976565b82525050565b60006020820190506109a66000830184610982565b92915050565b600073ffffffffffffffffffffffffffffffffffffffff82169050919050565b60006109d7826109ac565b9050919050565b6109e7816109cc565b82525050565b6000819050919050565b610a00816109ed565b82525050565b6000606082019050610a1b60008301866109de565b610a2860208301856109f7565b610a3560408301846109f7565b949350505050565b6000602082019050610a5260008301846109de565b92915050565b6000602082019050610a6d60008301846109f7565b92915050565b7f4f6e6c7920746865206f776e65722063616e2063616c6c20746869732066756e60008201527f6374696f6e000000000000000000000000000000000000000000000000000000602082015250565b6000610acf6025836108d3565b9150610ada82610a73565b604082019050919050565b60006020820190508181036000830152610afe81610ac2565b9050919050565b7f4e487b7100000000000000000000000000000000000000000000000000000000600052601160045260246000fd5b6000610b3f826109ed565b9150610b4a836109ed565b9250828203905081811115610b6257610b61610b05565b5b92915050565b7f596f75206e65656420746f2073656e64206174206c6561737420302e3030312060008201527f4574680000000000000000000000000000000000000000000000000000000000602082015250565b6000610bc46023836108d3565b9150610bcf82610b68565b604082019050919050565b60006020820190508181036000830152610bf381610bb7565b9050919050565b6000610c05826109ed565b9150610c10836109ed565b9250828201905080821115610c2857610c27610b05565b5b92915050565b7f596f7527726520616c726561647920746865206c617374207072657373657200600082015250565b6000610c64601f836108d3565b9150610c6f82610c2e565b602082019050919050565b60006020820190508181036000830152610c9381610c57565b9050919050565b7f47616d652068617320656e6465642e205761697420666f72207468652072657360008201527f746172742e000000000000000000000000000000000000000000000000000000602082015250565b6000610cf66025836108d3565b9150610d0182610c9a565b604082019050919050565b60006020820190508181036000830152610d2581610ce9565b9050919050565b6000610d37826109ed565b9150610d42836109ed565b9250828202610d50816109ed565b91508282048414831517610d6757610d66610b05565b5b5092915050565b7f4e487b7100000000000000000000000000000000000000000000000000000000600052601260045260246000fd5b6000610da8826109ed565b9150610db3836109ed565b925082610dc357610dc2610d6e565b5b828204905092915050565b60008160001c9050919050565b600073ffffffffffffffffffffffffffffffffffffffff82169050919050565b6000610e0e610e0983610dce565b610ddb565b9050919050565b610e1e816109cc565b82525050565b6000819050919050565b6000610e41610e3c83610dce565b610e24565b9050919050565b610e51816109ed565b82525050565b606082016000808301549050610e6c81610dfb565b610e796000860182610e15565b5060018301549050610e8a81610e2e565b610e976020860182610e48565b5060028301549050610ea881610e2e565b610eb56040860182610e48565b5050505050565b6000606082019050610ed16000830184610e57565b92915050565b7f4f6e6c7920746865206c61737420707265737365722063616e2063616c6c207460008201527f6869732066756e6374696f6e0000000000000000000000000000000000000000602082015250565b6000610f33602c836108d3565b9150610f3e82610ed7565b604082019050919050565b60006020820190508181036000830152610f6281610f26565b9050919050565b7f5761697420666f72207468652074696d657220746f206578706972652e000000600082015250565b6000610f9f601d836108d3565b9150610faa82610f69565b602082019050919050565b60006020820190508181036000830152610fce81610f92565b9050919050565b7f436c61696d20706572696f642068617320657870697265642e00000000000000600082015250565b600061100b6019836108d3565b915061101682610fd5565b602082019050919050565b6000602082019050818103600083015261103a81610ffe565b9050919050565b7f506f742062616c616e636520697320656d707479000000000000000000000000600082015250565b60006110776014836108d3565b915061108282611041565b602082019050919050565b600060208201905081810360008301526110a68161106a565b9050919050565b600081905092915050565b50565b60006110c86000836110ad565b91506110d3826110b8565b600082019050919050565b60006110e9826110bb565b9150819050919050565b7f5472616e73666572206661696c65640000000000000000000000000000000000600082015250565b6000611129600f836108d3565b9150611134826110f3565b602082019050919050565b600060208201905081810360008301526111588161111c565b905091905056fea2646970667358221220410b08556c92570625b8698853a5696ee23a85e60fa4460fd3c11174f6234d3464736f6c63430008130033",
  "linkReferences": {},
  "deployedLinkReferences": {}
}