{
  "_format": "hh-sol-artifact-1",
  "contractName": "Web3Button",
  "sourceName": "contracts/Web3Button.sol",
  "abi": [
    {
      "inputs": [],
      "stateMutability": "nonpayable",
      "type": "constructor"
    },
    {
      "anonymous": false,
      "inputs": [
        {
          "indexed": true,
          "internalType": "address",
          "name": "lastPresser",
          "type": "address"
        }
      ],
      "name": "ButtonPressed",
      "type": "event"
    },
    {
      "anonymous": false,
      "inputs": [
        {
          "indexed": true,
          "internalType": "address",
          "name": "winner",
          "type": "address"
        }
      ],
      "name": "GameWon",
      "type": "event"
    },
    {
      "inputs": [],
      "name": "claimDeadline",
      "outputs": [
        {
          "internalType": "uint256",
          "name": "",
          "type": "uint256"
        }
      ],
      "stateMutability": "view",
      "type": "function"
    },
    {
      "inputs": [],
      "name": "claimPot",
      "outputs": [],
      "stateMutability": "nonpayable",
      "type": "function"
    },
    {
      "inputs": [],
      "name": "isGameActive",
      "outputs": [
        {
          "internalType": "bool",
          "name": "",
          "type": "bool"
        }
      ],
      "stateMutability": "view",
      "type": "function"
    },
    {
      "inputs": [],
      "name": "lastPressTimestamp",
      "outputs": [
        {
          "internalType": "uint256",
          "name": "",
          "type": "uint256"
        }
      ],
      "stateMutability": "view",
      "type": "function"
    },
    {
      "inputs": [],
      "name": "lastPresser",
      "outputs": [
        {
          "internalType": "address",
          "name": "",
          "type": "address"
        }
      ],
      "stateMutability": "view",
      "type": "function"
    },
    {
      "inputs": [],
      "name": "owner",
      "outputs": [
        {
          "internalType": "address",
          "name": "",
          "type": "address"
        }
      ],
      "stateMutability": "view",
      "type": "function"
    },
    {
      "inputs": [],
      "name": "potBalance",
      "outputs": [
        {
          "internalType": "uint256",
          "name": "",
          "type": "uint256"
        }
      ],
      "stateMutability": "view",
      "type": "function"
    },
    {
      "inputs": [],
      "name": "press",
      "outputs": [],
      "stateMutability": "payable",
      "type": "function"
    },
    {
      "inputs": [],
      "name": "withdraw",
      "outputs": [],
      "stateMutability": "nonpayable",
      "type": "function"
    },
    {
      "stateMutability": "payable",
      "type": "receive"
    }
  ],
  "bytecode": "0x60806040526001600560006101000a81548160ff02191690831515021790555034801561002b57600080fd5b50336000806101000a81548173ffffffffffffffffffffffffffffffffffffffff021916908373ffffffffffffffffffffffffffffffffffffffff160217905550610f308061007b6000396000f3fe60806040526004361061008a5760003560e01c80634111a197116100595780634111a197146101675780635b372532146101925780638da5cb5b1461019c578063ec18ca9c146101c7578063f688abd1146101f2576100ca565b80630c0ef2b0146100cf578063135e86cb146100fa5780633ba86c44146101255780633ccfd60b14610150576100ca565b366100ca576040517f08c379a00000000000000000000000000000000000000000000000000000000081526004016100c19061089d565b60405180910390fd5b600080fd5b3480156100db57600080fd5b506100e4610209565b6040516100f191906108d8565b60405180910390f35b34801561010657600080fd5b5061010f61021c565b60405161011c919061090c565b60405180910390f35b34801561013157600080fd5b5061013a610222565b604051610147919061090c565b60405180910390f35b34801561015c57600080fd5b50610165610228565b005b34801561017357600080fd5b5061017c610332565b604051610189919061090c565b60405180910390f35b61019a610338565b005b3480156101a857600080fd5b506101b1610504565b6040516101be9190610968565b60405180910390f35b3480156101d357600080fd5b506101dc610528565b6040516101e99190610968565b60405180910390f35b3480156101fe57600080fd5b5061020761054e565b005b600560009054906101000a900460ff1681565b60025481565b60045481565b60008054906101000a900473ffffffffffffffffffffffffffffffffffffffff1673ffffffffffffffffffffffffffffffffffffffff163373ffffffffffffffffffffffffffffffffffffffff16146102b6576040517f08c379a00000000000000000000000000000000000000000000000000000000081526004016102ad906109f5565b60405180910390fd5b6000600354476102c69190610a44565b905060008054906101000a900473ffffffffffffffffffffffffffffffffffffffff1673ffffffffffffffffffffffffffffffffffffffff166108fc829081150290604051600060405180830381858888f1935050505015801561032e573d6000803e3d6000fd5b5050565b60035481565b66038d7ea4c68000341015610382576040517f08c379a000000000000000000000000000000000000000000000000000000000815260040161037990610aea565b60405180910390fd5b600560009054906101000a900460ff161580156103a0575060045442115b156103c1576001600560006101000a81548160ff0219169083151502179055505b600560009054906101000a900460ff16610410576040517f08c379a000000000000000000000000000000000000000000000000000000000815260040161040790610b7c565b60405180910390fd5b600a60093461041f9190610b9c565b6104299190610c0d565b6003600082825461043a9190610c3e565b9250508190555033600160006101000a81548173ffffffffffffffffffffffffffffffffffffffff021916908373ffffffffffffffffffffffffffffffffffffffff1602179055504260028190555061012c426104979190610c3e565b600481905550600160009054906101000a900473ffffffffffffffffffffffffffffffffffffffff1673ffffffffffffffffffffffffffffffffffffffff167f29152c01112cda8c6715e455bea3885b4e165a68cdcae53453cf7c19e4acb0da60405160405180910390a2565b60008054906101000a900473ffffffffffffffffffffffffffffffffffffffff1681565b600160009054906101000a900473ffffffffffffffffffffffffffffffffffffffff1681565b600160009054906101000a900473ffffffffffffffffffffffffffffffffffffffff1673ffffffffffffffffffffffffffffffffffffffff163373ffffffffffffffffffffffffffffffffffffffff16146105de576040517f08c379a00000000000000000000000000000000000000000000000000000000081526004016105d590610ce4565b60405180910390fd5b603c600254426105ee9190610a44565b101561062f576040517f08c379a000000000000000000000000000000000000000000000000000000000815260040161062690610d50565b60405180910390fd5b600454421115610674576040517f08c379a000000000000000000000000000000000000000000000000000000000815260040161066b90610dbc565b60405180910390fd5b6000600354116106b9576040517f08c379a00000000000000000000000000000000000000000000000000000000081526004016106b090610e28565b60405180910390fd5b6000600354905060006003819055506000600560006101000a81548160ff0219169083151502179055506000600160009054906101000a900473ffffffffffffffffffffffffffffffffffffffff1673ffffffffffffffffffffffffffffffffffffffff168260405161072b90610e79565b60006040518083038185875af1925050503d8060008114610768576040519150601f19603f3d011682016040523d82523d6000602084013e61076d565b606091505b50509050806107b1576040517f08c379a00000000000000000000000000000000000000000000000000000000081526004016107a890610eda565b60405180910390fd5b600160009054906101000a900473ffffffffffffffffffffffffffffffffffffffff1673ffffffffffffffffffffffffffffffffffffffff167f78b3193cf31372e77b1f3045481681f86e18e346de12ae7f1ecc322ff0adf1a460405160405180910390a25050565b600082825260208201905092915050565b7f436f6e747261637420646f6573206e6f7420616363657074206469726563742060008201527f4574686572207472616e73666572730000000000000000000000000000000000602082015250565b6000610887602f8361081a565b91506108928261082b565b604082019050919050565b600060208201905081810360008301526108b68161087a565b9050919050565b60008115159050919050565b6108d2816108bd565b82525050565b60006020820190506108ed60008301846108c9565b92915050565b6000819050919050565b610906816108f3565b82525050565b600060208201905061092160008301846108fd565b92915050565b600073ffffffffffffffffffffffffffffffffffffffff82169050919050565b600061095282610927565b9050919050565b61096281610947565b82525050565b600060208201905061097d6000830184610959565b92915050565b7f4f6e6c7920746865206f776e65722063616e2063616c6c20746869732066756e60008201527f6374696f6e000000000000000000000000000000000000000000000000000000602082015250565b60006109df60258361081a565b91506109ea82610983565b604082019050919050565b60006020820190508181036000830152610a0e816109d2565b9050919050565b7f4e487b7100000000000000000000000000000000000000000000000000000000600052601160045260246000fd5b6000610a4f826108f3565b9150610a5a836108f3565b9250828203905081811115610a7257610a71610a15565b5b92915050565b7f596f75206e65656420746f2073656e64206174206c6561737420302e3030312060008201527f4574680000000000000000000000000000000000000000000000000000000000602082015250565b6000610ad460238361081a565b9150610adf82610a78565b604082019050919050565b60006020820190508181036000830152610b0381610ac7565b9050919050565b7f47616d652068617320656e6465642e205761697420666f72207468652072657360008201527f746172742e000000000000000000000000000000000000000000000000000000602082015250565b6000610b6660258361081a565b9150610b7182610b0a565b604082019050919050565b60006020820190508181036000830152610b9581610b59565b9050919050565b6000610ba7826108f3565b9150610bb2836108f3565b9250828202610bc0816108f3565b91508282048414831517610bd757610bd6610a15565b5b5092915050565b7f4e487b7100000000000000000000000000000000000000000000000000000000600052601260045260246000fd5b6000610c18826108f3565b9150610c23836108f3565b925082610c3357610c32610bde565b5b828204905092915050565b6000610c49826108f3565b9150610c54836108f3565b9250828201905080821115610c6c57610c6b610a15565b5b92915050565b7f4f6e6c7920746865206c61737420707265737365722063616e2063616c6c207460008201527f6869732066756e6374696f6e0000000000000000000000000000000000000000602082015250565b6000610cce602c8361081a565b9150610cd982610c72565b604082019050919050565b60006020820190508181036000830152610cfd81610cc1565b9050919050565b7f5761697420666f72207468652074696d657220746f206578706972652e000000600082015250565b6000610d3a601d8361081a565b9150610d4582610d04565b602082019050919050565b60006020820190508181036000830152610d6981610d2d565b9050919050565b7f436c61696d20706572696f642068617320657870697265642e00000000000000600082015250565b6000610da660198361081a565b9150610db182610d70565b602082019050919050565b60006020820190508181036000830152610dd581610d99565b9050919050565b7f506f742062616c616e636520697320656d707479000000000000000000000000600082015250565b6000610e1260148361081a565b9150610e1d82610ddc565b602082019050919050565b60006020820190508181036000830152610e4181610e05565b9050919050565b600081905092915050565b50565b6000610e63600083610e48565b9150610e6e82610e53565b600082019050919050565b6000610e8482610e56565b9150819050919050565b7f5472616e73666572206661696c65640000000000000000000000000000000000600082015250565b6000610ec4600f8361081a565b9150610ecf82610e8e565b602082019050919050565b60006020820190508181036000830152610ef381610eb7565b905091905056fea26469706673582212209f21347ecd6e0cc04c887526fc7ed83d4d61945b483f490c2dc4c16a981ba26064736f6c63430008130033",
  "linkReferences": {},
  "deployedLinkReferences": {}
}