{
  "_format": "hh-sol-artifact-1",
  "contractName": "Web3Button",
  "sourceName": "contracts/Web3Button.sol",
  "abi": [
    {
      "inputs": [],
      "stateMutability": "nonpayable",
      "type": "constructor"
    },
    {
      "anonymous": false,
      "inputs": [
        {
          "indexed": true,
          "internalType": "address",
          "name": "lastPresser",
          "type": "address"
        }
      ],
      "name": "ButtonPressed",
      "type": "event"
    },
    {
      "inputs": [],
      "name": "balance",
      "outputs": [
        {
          "internalType": "uint256",
          "name": "",
          "type": "uint256"
        }
      ],
      "stateMutability": "view",
      "type": "function"
    },
    {
      "inputs": [],
      "name": "lastPressTimestamp",
      "outputs": [
        {
          "internalType": "uint256",
          "name": "",
          "type": "uint256"
        }
      ],
      "stateMutability": "view",
      "type": "function"
    },
    {
      "inputs": [],
      "name": "lastPresser",
      "outputs": [
        {
          "internalType": "address",
          "name": "",
          "type": "address"
        }
      ],
      "stateMutability": "view",
      "type": "function"
    },
    {
      "inputs": [],
      "name": "owner",
      "outputs": [
        {
          "internalType": "address",
          "name": "",
          "type": "address"
        }
      ],
      "stateMutability": "view",
      "type": "function"
    },
    {
      "inputs": [],
      "name": "press",
      "outputs": [],
      "stateMutability": "payable",
      "type": "function"
    },
    {
      "inputs": [],
      "name": "secondsSinceLastPress",
      "outputs": [
        {
          "internalType": "uint256",
          "name": "",
          "type": "uint256"
        }
      ],
      "stateMutability": "view",
      "type": "function"
    },
    {
      "inputs": [],
      "name": "withdraw",
      "outputs": [],
      "stateMutability": "nonpayable",
      "type": "function"
    },
    {
      "stateMutability": "payable",
      "type": "receive"
    }
  ],
  "bytecode": "0x608060405234801561001057600080fd5b50336000806101000a81548173ffffffffffffffffffffffffffffffffffffffff021916908373ffffffffffffffffffffffffffffffffffffffff160217905550610a9e806100606000396000f3fe6080604052600436106100745760003560e01c80635b3725321161004e5780635b372532146101265780638da5cb5b14610130578063b69ef8a81461015b578063ec18ca9c14610186576100b4565b8063135e86cb146100b957806336e32cdd146100e45780633ccfd60b1461010f576100b4565b366100b4576040517f08c379a00000000000000000000000000000000000000000000000000000000081526004016100ab90610607565b60405180910390fd5b600080fd5b3480156100c557600080fd5b506100ce6101b1565b6040516100db9190610640565b60405180910390f35b3480156100f057600080fd5b506100f96101b7565b6040516101069190610640565b60405180910390f35b34801561011b57600080fd5b5061012461021c565b005b61012e610423565b005b34801561013c57600080fd5b50610145610534565b604051610152919061069c565b60405180910390f35b34801561016757600080fd5b50610170610558565b60405161017d9190610640565b60405180910390f35b34801561019257600080fd5b5061019b61055e565b6040516101a8919061069c565b60405180910390f35b60025481565b600080600254116101fd576040517f08c379a00000000000000000000000000000000000000000000000000000000081526004016101f490610703565b60405180910390fd5b60004290506000600254826102129190610752565b9050809250505090565b600160009054906101000a900473ffffffffffffffffffffffffffffffffffffffff1673ffffffffffffffffffffffffffffffffffffffff163373ffffffffffffffffffffffffffffffffffffffff16146102ac576040517f08c379a00000000000000000000000000000000000000000000000000000000081526004016102a3906107f8565b60405180910390fd5b603c600254426102bc9190610752565b10156102fd576040517f08c379a00000000000000000000000000000000000000000000000000000000081526004016102f490610864565b60405180910390fd5b600060035411610342576040517f08c379a0000000000000000000000000000000000000000000000000000000008152600401610339906108d0565b60405180910390fd5b6000600354905060006003819055506000600160009054906101000a900473ffffffffffffffffffffffffffffffffffffffff1673ffffffffffffffffffffffffffffffffffffffff168260405161039990610921565b60006040518083038185875af1925050503d80600081146103d6576040519150601f19603f3d011682016040523d82523d6000602084013e6103db565b606091505b505090508061041f576040517f08c379a000000000000000000000000000000000000000000000000000000000815260040161041690610982565b60405180910390fd5b5050565b662386f26fc10000341061046c576040517f08c379a000000000000000000000000000000000000000000000000000000000815260040161046390610a14565b60405180910390fd5b33600160006101000a81548173ffffffffffffffffffffffffffffffffffffffff021916908373ffffffffffffffffffffffffffffffffffffffff1602179055504260028190555034600360008282546104c69190610a34565b92505081905550600160009054906101000a900473ffffffffffffffffffffffffffffffffffffffff1673ffffffffffffffffffffffffffffffffffffffff167f29152c01112cda8c6715e455bea3885b4e165a68cdcae53453cf7c19e4acb0da60405160405180910390a2565b60008054906101000a900473ffffffffffffffffffffffffffffffffffffffff1681565b60035481565b600160009054906101000a900473ffffffffffffffffffffffffffffffffffffffff1681565b600082825260208201905092915050565b7f436f6e747261637420646f6573206e6f7420616363657074206469726563742060008201527f4574686572207472616e73666572730000000000000000000000000000000000602082015250565b60006105f1602f83610584565b91506105fc82610595565b604082019050919050565b60006020820190508181036000830152610620816105e4565b9050919050565b6000819050919050565b61063a81610627565b82525050565b60006020820190506106556000830184610631565b92915050565b600073ffffffffffffffffffffffffffffffffffffffff82169050919050565b60006106868261065b565b9050919050565b6106968161067b565b82525050565b60006020820190506106b1600083018461068d565b92915050565b7f4e6f20707265737320686173206f636375727265642079657400000000000000600082015250565b60006106ed601983610584565b91506106f8826106b7565b602082019050919050565b6000602082019050818103600083015261071c816106e0565b9050919050565b7f4e487b7100000000000000000000000000000000000000000000000000000000600052601160045260246000fd5b600061075d82610627565b915061076883610627565b92508282039050818111156107805761077f610723565b5b92915050565b7f4f6e6c7920746865206c61737420707265737365722063616e2063616c6c207460008201527f6869732066756e6374696f6e0000000000000000000000000000000000000000602082015250565b60006107e2602c83610584565b91506107ed82610786565b604082019050919050565b60006020820190508181036000830152610811816107d5565b9050919050565b7f54696d656f7574206e6f74207265616368656400000000000000000000000000600082015250565b600061084e601383610584565b915061085982610818565b602082019050919050565b6000602082019050818103600083015261087d81610841565b9050919050565b7f436f6e74726163742062616c616e636520697320656d70747900000000000000600082015250565b60006108ba601983610584565b91506108c582610884565b602082019050919050565b600060208201905081810360008301526108e9816108ad565b9050919050565b600081905092915050565b50565b600061090b6000836108f0565b9150610916826108fb565b600082019050919050565b600061092c826108fe565b9150819050919050565b7f5472616e73666572206661696c65640000000000000000000000000000000000600082015250565b600061096c600f83610584565b915061097782610936565b602082019050919050565b6000602082019050818103600083015261099b8161095f565b9050919050565b7f596f75206e65656420746f2073656e64206174206c6561737420302e3031204d60008201527f6174696300000000000000000000000000000000000000000000000000000000602082015250565b60006109fe602483610584565b9150610a09826109a2565b604082019050919050565b60006020820190508181036000830152610a2d816109f1565b9050919050565b6000610a3f82610627565b9150610a4a83610627565b9250828201905080821115610a6257610a61610723565b5b9291505056fea2646970667358221220eb8f7cd83c656360a0b14d3362195c4428806cd4aaede2265a25ddee13bd80bb64736f6c63430008130033",
  "linkReferences": {},
  "deployedLinkReferences": {}
}