{
  "_format": "hh-sol-artifact-1",
  "contractName": "Web3Button",
  "sourceName": "contracts/Web3Button.sol",
  "abi": [
    {
      "inputs": [],
      "stateMutability": "nonpayable",
      "type": "constructor"
    },
    {
      "anonymous": false,
      "inputs": [
        {
          "indexed": true,
          "internalType": "address",
          "name": "lastPresser",
          "type": "address"
        },
        {
          "indexed": false,
          "internalType": "uint256",
          "name": "lastPressTimestamp",
          "type": "uint256"
        },
        {
          "indexed": false,
          "internalType": "uint256",
          "name": "potBalance",
          "type": "uint256"
        }
      ],
      "name": "GameStatusChanged",
      "type": "event"
    },
    {
      "anonymous": false,
      "inputs": [
        {
          "indexed": true,
          "internalType": "address",
          "name": "lastPresser",
          "type": "address"
        },
        {
          "indexed": false,
          "internalType": "uint256",
          "name": "lastPressTimestamp",
          "type": "uint256"
        },
        {
          "indexed": false,
          "internalType": "uint256",
          "name": "potBalance",
          "type": "uint256"
        }
      ],
      "name": "GameWon",
      "type": "event"
    },
    {
      "inputs": [],
      "name": "CLAIM_DURATION",
      "outputs": [
        {
          "internalType": "uint256",
          "name": "",
          "type": "uint256"
        }
      ],
      "stateMutability": "view",
      "type": "function"
    },
    {
      "inputs": [],
      "name": "claimPot",
      "outputs": [],
      "stateMutability": "nonpayable",
      "type": "function"
    },
    {
      "inputs": [],
      "name": "gameStatus",
      "outputs": [
        {
          "internalType": "address",
          "name": "lastPresser",
          "type": "address"
        },
        {
          "internalType": "uint256",
          "name": "lastPressTimestamp",
          "type": "uint256"
        },
        {
          "internalType": "uint256",
          "name": "potBalance",
          "type": "uint256"
        }
      ],
      "stateMutability": "view",
      "type": "function"
    },
    {
      "inputs": [],
      "name": "isGameActive",
      "outputs": [
        {
          "internalType": "bool",
          "name": "",
          "type": "bool"
        }
      ],
      "stateMutability": "view",
      "type": "function"
    },
    {
      "inputs": [],
      "name": "owner",
      "outputs": [
        {
          "internalType": "address",
          "name": "",
          "type": "address"
        }
      ],
      "stateMutability": "view",
      "type": "function"
    },
    {
      "inputs": [],
      "name": "press",
      "outputs": [],
      "stateMutability": "payable",
      "type": "function"
    },
    {
      "inputs": [],
      "name": "withdraw",
      "outputs": [],
      "stateMutability": "nonpayable",
      "type": "function"
    },
    {
      "stateMutability": "payable",
      "type": "receive"
    }
  ],
  "bytecode": "0x60806040526001600060146101000a81548160ff02191690831515021790555034801561002b57600080fd5b50336000806101000a81548173ffffffffffffffffffffffffffffffffffffffff021916908373ffffffffffffffffffffffffffffffffffffffff1602179055506110be8061007b6000396000f3fe6080604052600436106100745760003560e01c8063722fed7e1161004e578063722fed7e146101055780638da5cb5b14610132578063f688abd11461015d578063ff844a6314610174576100b4565b80630c0ef2b0146100b95780633ccfd60b146100e45780635b372532146100fb576100b4565b366100b4576040517f08c379a00000000000000000000000000000000000000000000000000000000081526004016100ab9061095f565b60405180910390fd5b600080fd5b3480156100c557600080fd5b506100ce61019f565b6040516100db919061099a565b60405180910390f35b3480156100f057600080fd5b506100f96101b2565b005b6101036102bf565b005b34801561011157600080fd5b5061011a61057a565b60405161012993929190610a0f565b60405180910390f35b34801561013e57600080fd5b506101476105b2565b6040516101549190610a46565b60405180910390f35b34801561016957600080fd5b506101726105d6565b005b34801561018057600080fd5b506101896108d6565b6040516101969190610a61565b60405180910390f35b600060149054906101000a900460ff1681565b60008054906101000a900473ffffffffffffffffffffffffffffffffffffffff1673ffffffffffffffffffffffffffffffffffffffff163373ffffffffffffffffffffffffffffffffffffffff1614610240576040517f08c379a000000000000000000000000000000000000000000000000000000000815260040161023790610aee565b60405180910390fd5b6000600160020154476102539190610b3d565b905060008054906101000a900473ffffffffffffffffffffffffffffffffffffffff1673ffffffffffffffffffffffffffffffffffffffff166108fc829081150290604051600060405180830381858888f193505050501580156102bb573d6000803e3d6000fd5b5050565b66038d7ea4c68000341015610309576040517f08c379a000000000000000000000000000000000000000000000000000000000815260040161030090610be3565b60405180910390fd5b600160000160009054906101000a900473ffffffffffffffffffffffffffffffffffffffff1673ffffffffffffffffffffffffffffffffffffffff163373ffffffffffffffffffffffffffffffffffffffff1614801561037a575061012c60018001546103769190610c03565b4211155b156103ba576040517f08c379a00000000000000000000000000000000000000000000000000000000081526004016103b190610c83565b60405180910390fd5b600060149054906101000a900460ff161580156103e7575061012c60018001546103e49190610c03565b42115b15610408576001600060146101000a81548160ff0219169083151502179055505b603c60018001544261041a9190610b3d565b10158015610439575061012c60018001546104359190610c03565b4211155b15610479576040517f08c379a000000000000000000000000000000000000000000000000000000000815260040161047090610d15565b60405180910390fd5b600a6009346104889190610d35565b6104929190610da6565b600160020160008282546104a69190610c03565b9250508190555033600160000160006101000a81548173ffffffffffffffffffffffffffffffffffffffff021916908373ffffffffffffffffffffffffffffffffffffffff160217905550426001800181905550600160000160009054906101000a900473ffffffffffffffffffffffffffffffffffffffff1673ffffffffffffffffffffffffffffffffffffffff167f21dadeff405604fac66ff2b2586f4aa9ae00748857a255095d05e8afc534289c6001800154600160020154604051610570929190610dd7565b60405180910390a2565b60018060000160009054906101000a900473ffffffffffffffffffffffffffffffffffffffff16908060010154908060020154905083565b60008054906101000a900473ffffffffffffffffffffffffffffffffffffffff1681565b600160000160009054906101000a900473ffffffffffffffffffffffffffffffffffffffff1673ffffffffffffffffffffffffffffffffffffffff163373ffffffffffffffffffffffffffffffffffffffff1614610669576040517f08c379a000000000000000000000000000000000000000000000000000000000815260040161066090610e72565b60405180910390fd5b603c60018001544261067b9190610b3d565b10156106bc576040517f08c379a00000000000000000000000000000000000000000000000000000000081526004016106b390610ede565b60405180910390fd5b61012c60018001546106ce9190610c03565b421115610710576040517f08c379a000000000000000000000000000000000000000000000000000000000815260040161070790610f4a565b60405180910390fd5b600060016002015411610758576040517f08c379a000000000000000000000000000000000000000000000000000000000815260040161074f90610fb6565b60405180910390fd5b60006001600201549050600060016002018190555060008060146101000a81548160ff0219169083151502179055506000600160000160006101000a81548173ffffffffffffffffffffffffffffffffffffffff021916908373ffffffffffffffffffffffffffffffffffffffff1602179055506000600180018190555060003373ffffffffffffffffffffffffffffffffffffffff16826040516107fc90611007565b60006040518083038185875af1925050503d8060008114610839576040519150601f19603f3d011682016040523d82523d6000602084013e61083e565b606091505b5050905080610882576040517f08c379a000000000000000000000000000000000000000000000000000000000815260040161087990611068565b60405180910390fd5b3373ffffffffffffffffffffffffffffffffffffffff167f2ffb5e4748e43f6ca515f554cade99a469e03fa57973c54c2cb30d8d4cb788d942846040516108ca929190610dd7565b60405180910390a25050565b61012c81565b600082825260208201905092915050565b7f436f6e747261637420646f6573206e6f7420616363657074206469726563742060008201527f4574686572207472616e73666572730000000000000000000000000000000000602082015250565b6000610949602f836108dc565b9150610954826108ed565b604082019050919050565b600060208201905081810360008301526109788161093c565b9050919050565b60008115159050919050565b6109948161097f565b82525050565b60006020820190506109af600083018461098b565b92915050565b600073ffffffffffffffffffffffffffffffffffffffff82169050919050565b60006109e0826109b5565b9050919050565b6109f0816109d5565b82525050565b6000819050919050565b610a09816109f6565b82525050565b6000606082019050610a2460008301866109e7565b610a316020830185610a00565b610a3e6040830184610a00565b949350505050565b6000602082019050610a5b60008301846109e7565b92915050565b6000602082019050610a766000830184610a00565b92915050565b7f4f6e6c7920746865206f776e65722063616e2063616c6c20746869732066756e60008201527f6374696f6e000000000000000000000000000000000000000000000000000000602082015250565b6000610ad86025836108dc565b9150610ae382610a7c565b604082019050919050565b60006020820190508181036000830152610b0781610acb565b9050919050565b7f4e487b7100000000000000000000000000000000000000000000000000000000600052601160045260246000fd5b6000610b48826109f6565b9150610b53836109f6565b9250828203905081811115610b6b57610b6a610b0e565b5b92915050565b7f596f75206e65656420746f2073656e64206174206c6561737420302e3030312060008201527f4574680000000000000000000000000000000000000000000000000000000000602082015250565b6000610bcd6023836108dc565b9150610bd882610b71565b604082019050919050565b60006020820190508181036000830152610bfc81610bc0565b9050919050565b6000610c0e826109f6565b9150610c19836109f6565b9250828201905080821115610c3157610c30610b0e565b5b92915050565b7f596f7527726520616c726561647920746865206c617374207072657373657200600082015250565b6000610c6d601f836108dc565b9150610c7882610c37565b602082019050919050565b60006020820190508181036000830152610c9c81610c60565b9050919050565b7f47616d652068617320656e6465642e2057616974696e6720666f72207468652060008201527f77696e6e657220746f20636c61696d2074686520706f742e0000000000000000602082015250565b6000610cff6038836108dc565b9150610d0a82610ca3565b604082019050919050565b60006020820190508181036000830152610d2e81610cf2565b9050919050565b6000610d40826109f6565b9150610d4b836109f6565b9250828202610d59816109f6565b91508282048414831517610d7057610d6f610b0e565b5b5092915050565b7f4e487b7100000000000000000000000000000000000000000000000000000000600052601260045260246000fd5b6000610db1826109f6565b9150610dbc836109f6565b925082610dcc57610dcb610d77565b5b828204905092915050565b6000604082019050610dec6000830185610a00565b610df96020830184610a00565b9392505050565b7f4f6e6c7920746865206c61737420707265737365722063616e2063616c6c207460008201527f6869732066756e6374696f6e0000000000000000000000000000000000000000602082015250565b6000610e5c602c836108dc565b9150610e6782610e00565b604082019050919050565b60006020820190508181036000830152610e8b81610e4f565b9050919050565b7f5761697420666f72207468652074696d657220746f206578706972652e000000600082015250565b6000610ec8601d836108dc565b9150610ed382610e92565b602082019050919050565b60006020820190508181036000830152610ef781610ebb565b9050919050565b7f436c61696d20706572696f642068617320657870697265642e00000000000000600082015250565b6000610f346019836108dc565b9150610f3f82610efe565b602082019050919050565b60006020820190508181036000830152610f6381610f27565b9050919050565b7f506f742062616c616e636520697320656d707479000000000000000000000000600082015250565b6000610fa06014836108dc565b9150610fab82610f6a565b602082019050919050565b60006020820190508181036000830152610fcf81610f93565b9050919050565b600081905092915050565b50565b6000610ff1600083610fd6565b9150610ffc82610fe1565b600082019050919050565b600061101282610fe4565b9150819050919050565b7f5472616e73666572206661696c65640000000000000000000000000000000000600082015250565b6000611052600f836108dc565b915061105d8261101c565b602082019050919050565b6000602082019050818103600083015261108181611045565b905091905056fea2646970667358221220344abed747fbe96cde4552e60fe920beb9996c1f81d28b75351dd1def6d9975e64736f6c63430008130033",
  "linkReferences": {},
  "deployedLinkReferences": {}
}