{
  "_format": "hh-sol-artifact-1",
  "contractName": "Web3Button",
  "sourceName": "contracts/Web3Button.sol",
  "abi": [
    {
      "inputs": [],
      "stateMutability": "nonpayable",
      "type": "constructor"
    },
    {
      "anonymous": false,
      "inputs": [
        {
          "indexed": true,
          "internalType": "address",
          "name": "lastPresser",
          "type": "address"
        }
      ],
      "name": "ButtonPressed",
      "type": "event"
    },
    {
      "inputs": [],
      "name": "balance",
      "outputs": [
        {
          "internalType": "uint256",
          "name": "",
          "type": "uint256"
        }
      ],
      "stateMutability": "view",
      "type": "function"
    },
    {
      "inputs": [],
      "name": "lastPressTimestamp",
      "outputs": [
        {
          "internalType": "uint256",
          "name": "",
          "type": "uint256"
        }
      ],
      "stateMutability": "view",
      "type": "function"
    },
    {
      "inputs": [],
      "name": "lastPresser",
      "outputs": [
        {
          "internalType": "address",
          "name": "",
          "type": "address"
        }
      ],
      "stateMutability": "view",
      "type": "function"
    },
    {
      "inputs": [],
      "name": "owner",
      "outputs": [
        {
          "internalType": "address",
          "name": "",
          "type": "address"
        }
      ],
      "stateMutability": "view",
      "type": "function"
    },
    {
      "inputs": [],
      "name": "press",
      "outputs": [],
      "stateMutability": "payable",
      "type": "function"
    },
    {
      "inputs": [],
      "name": "withdraw",
      "outputs": [],
      "stateMutability": "nonpayable",
      "type": "function"
    },
    {
      "stateMutability": "payable",
      "type": "receive"
    }
  ],
  "bytecode": "0x608060405234801561001057600080fd5b50336000806101000a81548173ffffffffffffffffffffffffffffffffffffffff021916908373ffffffffffffffffffffffffffffffffffffffff160217905550610986806100606000396000f3fe6080604052600436106100595760003560e01c8063135e86cb1461009e5780633ccfd60b146100c95780635b372532146100e05780638da5cb5b146100ea578063b69ef8a814610115578063ec18ca9c1461014057610099565b36610099576040517f08c379a00000000000000000000000000000000000000000000000000000000081526004016100909061055b565b60405180910390fd5b600080fd5b3480156100aa57600080fd5b506100b361016b565b6040516100c09190610594565b60405180910390f35b3480156100d557600080fd5b506100de610171565b005b6100e8610378565b005b3480156100f657600080fd5b506100ff610488565b60405161010c91906105f0565b60405180910390f35b34801561012157600080fd5b5061012a6104ac565b6040516101379190610594565b60405180910390f35b34801561014c57600080fd5b506101556104b2565b60405161016291906105f0565b60405180910390f35b60025481565b600160009054906101000a900473ffffffffffffffffffffffffffffffffffffffff1673ffffffffffffffffffffffffffffffffffffffff163373ffffffffffffffffffffffffffffffffffffffff1614610201576040517f08c379a00000000000000000000000000000000000000000000000000000000081526004016101f89061067d565b60405180910390fd5b603c6002544261021191906106cc565b1015610252576040517f08c379a00000000000000000000000000000000000000000000000000000000081526004016102499061074c565b60405180910390fd5b600060035411610297576040517f08c379a000000000000000000000000000000000000000000000000000000000815260040161028e906107b8565b60405180910390fd5b6000600354905060006003819055506000600160009054906101000a900473ffffffffffffffffffffffffffffffffffffffff1673ffffffffffffffffffffffffffffffffffffffff16826040516102ee90610809565b60006040518083038185875af1925050503d806000811461032b576040519150601f19603f3d011682016040523d82523d6000602084013e610330565b606091505b5050905080610374576040517f08c379a000000000000000000000000000000000000000000000000000000000815260040161036b9061086a565b60405180910390fd5b5050565b655af3107a400034146103c0576040517f08c379a00000000000000000000000000000000000000000000000000000000081526004016103b7906108fc565b60405180910390fd5b33600160006101000a81548173ffffffffffffffffffffffffffffffffffffffff021916908373ffffffffffffffffffffffffffffffffffffffff16021790555042600281905550346003600082825461041a919061091c565b92505081905550600160009054906101000a900473ffffffffffffffffffffffffffffffffffffffff1673ffffffffffffffffffffffffffffffffffffffff167f29152c01112cda8c6715e455bea3885b4e165a68cdcae53453cf7c19e4acb0da60405160405180910390a2565b60008054906101000a900473ffffffffffffffffffffffffffffffffffffffff1681565b60035481565b600160009054906101000a900473ffffffffffffffffffffffffffffffffffffffff1681565b600082825260208201905092915050565b7f436f6e747261637420646f6573206e6f7420616363657074206469726563742060008201527f4574686572207472616e73666572730000000000000000000000000000000000602082015250565b6000610545602f836104d8565b9150610550826104e9565b604082019050919050565b6000602082019050818103600083015261057481610538565b9050919050565b6000819050919050565b61058e8161057b565b82525050565b60006020820190506105a96000830184610585565b92915050565b600073ffffffffffffffffffffffffffffffffffffffff82169050919050565b60006105da826105af565b9050919050565b6105ea816105cf565b82525050565b600060208201905061060560008301846105e1565b92915050565b7f4f6e6c7920746865206c61737420707265737365722063616e2063616c6c207460008201527f6869732066756e6374696f6e0000000000000000000000000000000000000000602082015250565b6000610667602c836104d8565b91506106728261060b565b604082019050919050565b600060208201905081810360008301526106968161065a565b9050919050565b7f4e487b7100000000000000000000000000000000000000000000000000000000600052601160045260246000fd5b60006106d78261057b565b91506106e28361057b565b92508282039050818111156106fa576106f961069d565b5b92915050565b7f54696d656f7574206e6f74207265616368656400000000000000000000000000600082015250565b60006107366013836104d8565b915061074182610700565b602082019050919050565b6000602082019050818103600083015261076581610729565b9050919050565b7f436f6e74726163742062616c616e636520697320656d70747900000000000000600082015250565b60006107a26019836104d8565b91506107ad8261076c565b602082019050919050565b600060208201905081810360008301526107d181610795565b9050919050565b600081905092915050565b50565b60006107f36000836107d8565b91506107fe826107e3565b600082019050919050565b6000610814826107e6565b9150819050919050565b7f5472616e73666572206661696c65640000000000000000000000000000000000600082015250565b6000610854600f836104d8565b915061085f8261081e565b602082019050919050565b6000602082019050818103600083015261088381610847565b9050919050565b7f596f75206e65656420746f2073656e642065786163746c7920302e303030312060008201527f4574686572000000000000000000000000000000000000000000000000000000602082015250565b60006108e66025836104d8565b91506108f18261088a565b604082019050919050565b60006020820190508181036000830152610915816108d9565b9050919050565b60006109278261057b565b91506109328361057b565b925082820190508082111561094a5761094961069d565b5b9291505056fea2646970667358221220362f0b000826d7b2f70e960d1f26f24fc8ea1e71ebdc3372bd4f583e0253f22064736f6c63430008130033",
  "linkReferences": {},
  "deployedLinkReferences": {}
}