{
  "_format": "hh-sol-artifact-1",
  "contractName": "Web3Button",
  "sourceName": "contracts/Web3Button.sol",
  "abi": [
    {
      "inputs": [],
      "stateMutability": "nonpayable",
      "type": "constructor"
    },
    {
      "anonymous": false,
      "inputs": [
        {
          "indexed": true,
          "internalType": "address",
          "name": "lastPresser",
          "type": "address"
        }
      ],
      "name": "ButtonPressed",
      "type": "event"
    },
    {
      "inputs": [],
      "name": "balance",
      "outputs": [
        {
          "internalType": "uint256",
          "name": "",
          "type": "uint256"
        }
      ],
      "stateMutability": "view",
      "type": "function"
    },
    {
      "inputs": [],
      "name": "lastPressTimestamp",
      "outputs": [
        {
          "internalType": "uint256",
          "name": "",
          "type": "uint256"
        }
      ],
      "stateMutability": "view",
      "type": "function"
    },
    {
      "inputs": [],
      "name": "lastPresser",
      "outputs": [
        {
          "internalType": "address",
          "name": "",
          "type": "address"
        }
      ],
      "stateMutability": "view",
      "type": "function"
    },
    {
      "inputs": [],
      "name": "owner",
      "outputs": [
        {
          "internalType": "address",
          "name": "",
          "type": "address"
        }
      ],
      "stateMutability": "view",
      "type": "function"
    },
    {
      "inputs": [],
      "name": "press",
      "outputs": [],
      "stateMutability": "payable",
      "type": "function"
    },
    {
      "inputs": [],
      "name": "withdraw",
      "outputs": [],
      "stateMutability": "nonpayable",
      "type": "function"
    },
    {
      "stateMutability": "payable",
      "type": "receive"
    }
  ],
  "bytecode": "0x608060405234801561001057600080fd5b50336000806101000a81548173ffffffffffffffffffffffffffffffffffffffff021916908373ffffffffffffffffffffffffffffffffffffffff160217905550610987806100606000396000f3fe6080604052600436106100595760003560e01c8063135e86cb1461009e5780633ccfd60b146100c95780635b372532146100e05780638da5cb5b146100ea578063b69ef8a814610115578063ec18ca9c1461014057610099565b36610099576040517f08c379a00000000000000000000000000000000000000000000000000000000081526004016100909061055c565b60405180910390fd5b600080fd5b3480156100aa57600080fd5b506100b361016b565b6040516100c09190610595565b60405180910390f35b3480156100d557600080fd5b506100de610171565b005b6100e8610378565b005b3480156100f657600080fd5b506100ff610489565b60405161010c91906105f1565b60405180910390f35b34801561012157600080fd5b5061012a6104ad565b6040516101379190610595565b60405180910390f35b34801561014c57600080fd5b506101556104b3565b60405161016291906105f1565b60405180910390f35b60025481565b600160009054906101000a900473ffffffffffffffffffffffffffffffffffffffff1673ffffffffffffffffffffffffffffffffffffffff163373ffffffffffffffffffffffffffffffffffffffff1614610201576040517f08c379a00000000000000000000000000000000000000000000000000000000081526004016101f89061067e565b60405180910390fd5b603c6002544261021191906106cd565b1015610252576040517f08c379a00000000000000000000000000000000000000000000000000000000081526004016102499061074d565b60405180910390fd5b600060035411610297576040517f08c379a000000000000000000000000000000000000000000000000000000000815260040161028e906107b9565b60405180910390fd5b6000600354905060006003819055506000600160009054906101000a900473ffffffffffffffffffffffffffffffffffffffff1673ffffffffffffffffffffffffffffffffffffffff16826040516102ee9061080a565b60006040518083038185875af1925050503d806000811461032b576040519150601f19603f3d011682016040523d82523d6000602084013e610330565b606091505b5050905080610374576040517f08c379a000000000000000000000000000000000000000000000000000000000815260040161036b9061086b565b60405180910390fd5b5050565b662386f26fc1000034106103c1576040517f08c379a00000000000000000000000000000000000000000000000000000000081526004016103b8906108fd565b60405180910390fd5b33600160006101000a81548173ffffffffffffffffffffffffffffffffffffffff021916908373ffffffffffffffffffffffffffffffffffffffff16021790555042600281905550346003600082825461041b919061091d565b92505081905550600160009054906101000a900473ffffffffffffffffffffffffffffffffffffffff1673ffffffffffffffffffffffffffffffffffffffff167f29152c01112cda8c6715e455bea3885b4e165a68cdcae53453cf7c19e4acb0da60405160405180910390a2565b60008054906101000a900473ffffffffffffffffffffffffffffffffffffffff1681565b60035481565b600160009054906101000a900473ffffffffffffffffffffffffffffffffffffffff1681565b600082825260208201905092915050565b7f436f6e747261637420646f6573206e6f7420616363657074206469726563742060008201527f4574686572207472616e73666572730000000000000000000000000000000000602082015250565b6000610546602f836104d9565b9150610551826104ea565b604082019050919050565b6000602082019050818103600083015261057581610539565b9050919050565b6000819050919050565b61058f8161057c565b82525050565b60006020820190506105aa6000830184610586565b92915050565b600073ffffffffffffffffffffffffffffffffffffffff82169050919050565b60006105db826105b0565b9050919050565b6105eb816105d0565b82525050565b600060208201905061060660008301846105e2565b92915050565b7f4f6e6c7920746865206c61737420707265737365722063616e2063616c6c207460008201527f6869732066756e6374696f6e0000000000000000000000000000000000000000602082015250565b6000610668602c836104d9565b91506106738261060c565b604082019050919050565b600060208201905081810360008301526106978161065b565b9050919050565b7f4e487b7100000000000000000000000000000000000000000000000000000000600052601160045260246000fd5b60006106d88261057c565b91506106e38361057c565b92508282039050818111156106fb576106fa61069e565b5b92915050565b7f54696d656f7574206e6f74207265616368656400000000000000000000000000600082015250565b60006107376013836104d9565b915061074282610701565b602082019050919050565b600060208201905081810360008301526107668161072a565b9050919050565b7f436f6e74726163742062616c616e636520697320656d70747900000000000000600082015250565b60006107a36019836104d9565b91506107ae8261076d565b602082019050919050565b600060208201905081810360008301526107d281610796565b9050919050565b600081905092915050565b50565b60006107f46000836107d9565b91506107ff826107e4565b600082019050919050565b6000610815826107e7565b9150819050919050565b7f5472616e73666572206661696c65640000000000000000000000000000000000600082015250565b6000610855600f836104d9565b91506108608261081f565b602082019050919050565b6000602082019050818103600083015261088481610848565b9050919050565b7f596f75206e65656420746f2073656e64206174206c6561737420302e3031204d60008201527f6174696300000000000000000000000000000000000000000000000000000000602082015250565b60006108e76024836104d9565b91506108f28261088b565b604082019050919050565b60006020820190508181036000830152610916816108da565b9050919050565b60006109288261057c565b91506109338361057c565b925082820190508082111561094b5761094a61069e565b5b9291505056fea2646970667358221220efcb94a008c24072ce4a95d6dc4cdd80745df2d6630b50d5201698013af5809664736f6c63430008130033",
  "linkReferences": {},
  "deployedLinkReferences": {}
}