{
  "_format": "hh-sol-artifact-1",
  "contractName": "Web3Button",
  "sourceName": "contracts/Web3Button.sol",
  "abi": [
    {
      "inputs": [],
      "stateMutability": "nonpayable",
      "type": "constructor"
    },
    {
      "anonymous": false,
      "inputs": [
        {
          "indexed": true,
          "internalType": "address",
          "name": "lastPresser",
          "type": "address"
        }
      ],
      "name": "ButtonPressed",
      "type": "event"
    },
    {
      "anonymous": false,
      "inputs": [
        {
          "indexed": true,
          "internalType": "address",
          "name": "winner",
          "type": "address"
        }
      ],
      "name": "GameWon",
      "type": "event"
    },
    {
      "inputs": [],
      "name": "claimDeadline",
      "outputs": [
        {
          "internalType": "uint256",
          "name": "",
          "type": "uint256"
        }
      ],
      "stateMutability": "view",
      "type": "function"
    },
    {
      "inputs": [],
      "name": "claimPot",
      "outputs": [],
      "stateMutability": "nonpayable",
      "type": "function"
    },
    {
      "inputs": [],
      "name": "isGameActive",
      "outputs": [
        {
          "internalType": "bool",
          "name": "",
          "type": "bool"
        }
      ],
      "stateMutability": "view",
      "type": "function"
    },
    {
      "inputs": [],
      "name": "lastPressTimestamp",
      "outputs": [
        {
          "internalType": "uint256",
          "name": "",
          "type": "uint256"
        }
      ],
      "stateMutability": "view",
      "type": "function"
    },
    {
      "inputs": [],
      "name": "lastPresser",
      "outputs": [
        {
          "internalType": "address",
          "name": "",
          "type": "address"
        }
      ],
      "stateMutability": "view",
      "type": "function"
    },
    {
      "inputs": [],
      "name": "owner",
      "outputs": [
        {
          "internalType": "address",
          "name": "",
          "type": "address"
        }
      ],
      "stateMutability": "view",
      "type": "function"
    },
    {
      "inputs": [],
      "name": "potBalance",
      "outputs": [
        {
          "internalType": "uint256",
          "name": "",
          "type": "uint256"
        }
      ],
      "stateMutability": "view",
      "type": "function"
    },
    {
      "inputs": [],
      "name": "press",
      "outputs": [],
      "stateMutability": "payable",
      "type": "function"
    },
    {
      "inputs": [],
      "name": "withdraw",
      "outputs": [],
      "stateMutability": "nonpayable",
      "type": "function"
    },
    {
      "stateMutability": "payable",
      "type": "receive"
    }
  ],
  "bytecode": "0x60806040526001600560006101000a81548160ff02191690831515021790555034801561002b57600080fd5b50336000806101000a81548173ffffffffffffffffffffffffffffffffffffffff021916908373ffffffffffffffffffffffffffffffffffffffff160217905550610f9e8061007b6000396000f3fe60806040526004361061008a5760003560e01c80634111a197116100595780634111a197146101675780635b372532146101925780638da5cb5b1461019c578063ec18ca9c146101c7578063f688abd1146101f2576100ca565b80630c0ef2b0146100cf578063135e86cb146100fa5780633ba86c44146101255780633ccfd60b14610150576100ca565b366100ca576040517f08c379a00000000000000000000000000000000000000000000000000000000081526004016100c19061090b565b60405180910390fd5b600080fd5b3480156100db57600080fd5b506100e4610209565b6040516100f19190610946565b60405180910390f35b34801561010657600080fd5b5061010f61021c565b60405161011c919061097a565b60405180910390f35b34801561013157600080fd5b5061013a610222565b604051610147919061097a565b60405180910390f35b34801561015c57600080fd5b50610165610228565b005b34801561017357600080fd5b5061017c610332565b604051610189919061097a565b60405180910390f35b61019a610338565b005b3480156101a857600080fd5b506101b1610564565b6040516101be91906109d6565b60405180910390f35b3480156101d357600080fd5b506101dc610588565b6040516101e991906109d6565b60405180910390f35b3480156101fe57600080fd5b506102076105ae565b005b600560009054906101000a900460ff1681565b60025481565b60045481565b60008054906101000a900473ffffffffffffffffffffffffffffffffffffffff1673ffffffffffffffffffffffffffffffffffffffff163373ffffffffffffffffffffffffffffffffffffffff16146102b6576040517f08c379a00000000000000000000000000000000000000000000000000000000081526004016102ad90610a63565b60405180910390fd5b6000600354476102c69190610ab2565b905060008054906101000a900473ffffffffffffffffffffffffffffffffffffffff1673ffffffffffffffffffffffffffffffffffffffff166108fc829081150290604051600060405180830381858888f1935050505015801561032e573d6000803e3d6000fd5b5050565b60035481565b66038d7ea4c68000341015610382576040517f08c379a000000000000000000000000000000000000000000000000000000000815260040161037990610b58565b60405180910390fd5b600560009054906101000a900460ff161580156103a0575060045442115b156103c1576001600560006101000a81548160ff0219169083151502179055505b603c600254426103d19190610ab2565b101580156103e157506004544211155b15610421576040517f08c379a000000000000000000000000000000000000000000000000000000000815260040161041890610bea565b60405180910390fd5b600560009054906101000a900460ff16610470576040517f08c379a000000000000000000000000000000000000000000000000000000000815260040161046790610bea565b60405180910390fd5b600a60093461047f9190610c0a565b6104899190610c7b565b6003600082825461049a9190610cac565b9250508190555033600160006101000a81548173ffffffffffffffffffffffffffffffffffffffff021916908373ffffffffffffffffffffffffffffffffffffffff1602179055504260028190555061012c426104f79190610cac565b600481905550600160009054906101000a900473ffffffffffffffffffffffffffffffffffffffff1673ffffffffffffffffffffffffffffffffffffffff167f29152c01112cda8c6715e455bea3885b4e165a68cdcae53453cf7c19e4acb0da60405160405180910390a2565b60008054906101000a900473ffffffffffffffffffffffffffffffffffffffff1681565b600160009054906101000a900473ffffffffffffffffffffffffffffffffffffffff1681565b600160009054906101000a900473ffffffffffffffffffffffffffffffffffffffff1673ffffffffffffffffffffffffffffffffffffffff163373ffffffffffffffffffffffffffffffffffffffff161461063e576040517f08c379a000000000000000000000000000000000000000000000000000000000815260040161063590610d52565b60405180910390fd5b603c6002544261064e9190610ab2565b101561068f576040517f08c379a000000000000000000000000000000000000000000000000000000000815260040161068690610dbe565b60405180910390fd5b6004544211156106d4576040517f08c379a00000000000000000000000000000000000000000000000000000000081526004016106cb90610e2a565b60405180910390fd5b600060035411610719576040517f08c379a000000000000000000000000000000000000000000000000000000000815260040161071090610e96565b60405180910390fd5b6000600354905060006003819055506000600560006101000a81548160ff0219169083151502179055506000600160006101000a81548173ffffffffffffffffffffffffffffffffffffffff021916908373ffffffffffffffffffffffffffffffffffffffff1602179055506000600281905550600060048190555060003373ffffffffffffffffffffffffffffffffffffffff16826040516107bb90610ee7565b60006040518083038185875af1925050503d80600081146107f8576040519150601f19603f3d011682016040523d82523d6000602084013e6107fd565b606091505b5050905080610841576040517f08c379a000000000000000000000000000000000000000000000000000000000815260040161083890610f48565b60405180910390fd5b3373ffffffffffffffffffffffffffffffffffffffff167f78b3193cf31372e77b1f3045481681f86e18e346de12ae7f1ecc322ff0adf1a460405160405180910390a25050565b600082825260208201905092915050565b7f436f6e747261637420646f6573206e6f7420616363657074206469726563742060008201527f4574686572207472616e73666572730000000000000000000000000000000000602082015250565b60006108f5602f83610888565b915061090082610899565b604082019050919050565b60006020820190508181036000830152610924816108e8565b9050919050565b60008115159050919050565b6109408161092b565b82525050565b600060208201905061095b6000830184610937565b92915050565b6000819050919050565b61097481610961565b82525050565b600060208201905061098f600083018461096b565b92915050565b600073ffffffffffffffffffffffffffffffffffffffff82169050919050565b60006109c082610995565b9050919050565b6109d0816109b5565b82525050565b60006020820190506109eb60008301846109c7565b92915050565b7f4f6e6c7920746865206f776e65722063616e2063616c6c20746869732066756e60008201527f6374696f6e000000000000000000000000000000000000000000000000000000602082015250565b6000610a4d602583610888565b9150610a58826109f1565b604082019050919050565b60006020820190508181036000830152610a7c81610a40565b9050919050565b7f4e487b7100000000000000000000000000000000000000000000000000000000600052601160045260246000fd5b6000610abd82610961565b9150610ac883610961565b9250828203905081811115610ae057610adf610a83565b5b92915050565b7f596f75206e65656420746f2073656e64206174206c6561737420302e3030312060008201527f4574680000000000000000000000000000000000000000000000000000000000602082015250565b6000610b42602383610888565b9150610b4d82610ae6565b604082019050919050565b60006020820190508181036000830152610b7181610b35565b9050919050565b7f47616d652068617320656e6465642e205761697420666f72207468652072657360008201527f746172742e000000000000000000000000000000000000000000000000000000602082015250565b6000610bd4602583610888565b9150610bdf82610b78565b604082019050919050565b60006020820190508181036000830152610c0381610bc7565b9050919050565b6000610c1582610961565b9150610c2083610961565b9250828202610c2e81610961565b91508282048414831517610c4557610c44610a83565b5b5092915050565b7f4e487b7100000000000000000000000000000000000000000000000000000000600052601260045260246000fd5b6000610c8682610961565b9150610c9183610961565b925082610ca157610ca0610c4c565b5b828204905092915050565b6000610cb782610961565b9150610cc283610961565b9250828201905080821115610cda57610cd9610a83565b5b92915050565b7f4f6e6c7920746865206c61737420707265737365722063616e2063616c6c207460008201527f6869732066756e6374696f6e0000000000000000000000000000000000000000602082015250565b6000610d3c602c83610888565b9150610d4782610ce0565b604082019050919050565b60006020820190508181036000830152610d6b81610d2f565b9050919050565b7f5761697420666f72207468652074696d657220746f206578706972652e000000600082015250565b6000610da8601d83610888565b9150610db382610d72565b602082019050919050565b60006020820190508181036000830152610dd781610d9b565b9050919050565b7f436c61696d20706572696f642068617320657870697265642e00000000000000600082015250565b6000610e14601983610888565b9150610e1f82610dde565b602082019050919050565b60006020820190508181036000830152610e4381610e07565b9050919050565b7f506f742062616c616e636520697320656d707479000000000000000000000000600082015250565b6000610e80601483610888565b9150610e8b82610e4a565b602082019050919050565b60006020820190508181036000830152610eaf81610e73565b9050919050565b600081905092915050565b50565b6000610ed1600083610eb6565b9150610edc82610ec1565b600082019050919050565b6000610ef282610ec4565b9150819050919050565b7f5472616e73666572206661696c65640000000000000000000000000000000000600082015250565b6000610f32600f83610888565b9150610f3d82610efc565b602082019050919050565b60006020820190508181036000830152610f6181610f25565b905091905056fea26469706673582212202a2a0d0b009e6ad881b6e17c239f625257937cd4270a99b2f2c05cb4c9d82ad564736f6c63430008130033",
  "linkReferences": {},
  "deployedLinkReferences": {}
}